99999999    00000001ANSWERS    BLUE        2214115232235532154243333451554135225425
12345678    00000001SCHERZER   MAX         221415113422 155112213135435255353442321
87654321    00000001RENDON     ANTHONY     2214115232235532153243333451554154225425
11111111    00000001STRASBURG  STEPHEN     2414315232235532114213333451554545225435
99999999    00000002ANSWERS    YELLOW      1523222141254252355321542433334515541352
22222222    00000002VERLANDER  JUSTIN      15212221412542555153 1532431314515241352
33333333    00000002SPRINGER   GEORGE      4523122141254352555321132253334515445353
44444444    00000002ALTUVE     JOSE        1123222141254251525321332431334525241311
55555555    00000002BREGMAN    ALEX        1523322141254252352321552131334115541312